{
  "_format": "hh-sol-artifact-1",
  "contractName": "EmployeeNFT",
  "sourceName": "contracts/EmployeeNFT.sol",
  "abi": [
    {
      "inputs": [],
      "stateMutability": "nonpayable",
      "type": "constructor"
    },
    {
      "anonymous": false,
      "inputs": [
        {
          "indexed": true,
          "internalType": "address",
          "name": "owner",
          "type": "address"
        },
        {
          "indexed": true,
          "internalType": "address",
          "name": "approved",
          "type": "address"
        },
        {
          "indexed": true,
          "internalType": "uint256",
          "name": "tokenId",
          "type": "uint256"
        }
      ],
      "name": "Approval",
      "type": "event"
    },
    {
      "anonymous": false,
      "inputs": [
        {
          "indexed": true,
          "internalType": "address",
          "name": "owner",
          "type": "address"
        },
        {
          "indexed": true,
          "internalType": "address",
          "name": "operator",
          "type": "address"
        },
        {
          "indexed": false,
          "internalType": "bool",
          "name": "approved",
          "type": "bool"
        }
      ],
      "name": "ApprovalForAll",
      "type": "event"
    },
    {
      "anonymous": false,
      "inputs": [
        {
          "indexed": true,
          "internalType": "uint256",
          "name": "tokenId",
          "type": "uint256"
        },
        {
          "indexed": true,
          "internalType": "address",
          "name": "recipientAddress",
          "type": "address"
        }
      ],
      "name": "EmployeeNFTMinted",
      "type": "event"
    },
    {
      "anonymous": false,
      "inputs": [
        {
          "indexed": true,
          "internalType": "address",
          "name": "previousOwner",
          "type": "address"
        },
        {
          "indexed": true,
          "internalType": "address",
          "name": "newOwner",
          "type": "address"
        }
      ],
      "name": "OwnershipTransferred",
      "type": "event"
    },
    {
      "anonymous": false,
      "inputs": [
        {
          "indexed": true,
          "internalType": "address",
          "name": "from",
          "type": "address"
        },
        {
          "indexed": true,
          "internalType": "address",
          "name": "to",
          "type": "address"
        },
        {
          "indexed": true,
          "internalType": "uint256",
          "name": "tokenId",
          "type": "uint256"
        }
      ],
      "name": "Transfer",
      "type": "event"
    },
    {
      "inputs": [
        {
          "internalType": "address",
          "name": "to",
          "type": "address"
        },
        {
          "internalType": "uint256",
          "name": "tokenId",
          "type": "uint256"
        }
      ],
      "name": "approve",
      "outputs": [],
      "stateMutability": "nonpayable",
      "type": "function"
    },
    {
      "inputs": [
        {
          "internalType": "address",
          "name": "owner",
          "type": "address"
        }
      ],
      "name": "balanceOf",
      "outputs": [
        {
          "internalType": "uint256",
          "name": "",
          "type": "uint256"
        }
      ],
      "stateMutability": "view",
      "type": "function"
    },
    {
      "inputs": [
        {
          "internalType": "address",
          "name": "_recipientAddress",
          "type": "address"
        },
        {
          "internalType": "string",
          "name": "_image",
          "type": "string"
        },
        {
          "internalType": "string",
          "name": "_text",
          "type": "string"
        },
        {
          "internalType": "uint256",
          "name": "_timeStamp",
          "type": "uint256"
        },
        {
          "internalType": "string[]",
          "name": "_tags",
          "type": "string[]"
        },
        {
          "internalType": "bool",
          "name": "_isApproveNFT",
          "type": "bool"
        },
        {
          "internalType": "string",
          "name": "_reason",
          "type": "string"
        },
        {
          "internalType": "uint256",
          "name": "_previousTokenId",
          "type": "uint256"
        },
        {
          "internalType": "string",
          "name": "dataHashFromBackend",
          "type": "string"
        }
      ],
      "name": "generateDataHash",
      "outputs": [
        {
          "internalType": "bytes32",
          "name": "",
          "type": "bytes32"
        }
      ],
      "stateMutability": "pure",
      "type": "function"
    },
    {
      "inputs": [
        {
          "internalType": "uint256",
          "name": "tokenId",
          "type": "uint256"
        }
      ],
      "name": "getApproved",
      "outputs": [
        {
          "internalType": "address",
          "name": "",
          "type": "address"
        }
      ],
      "stateMutability": "view",
      "type": "function"
    },
    {
      "inputs": [
        {
          "internalType": "uint256",
          "name": "_tokenId",
          "type": "uint256"
        }
      ],
      "name": "getEmployeeData",
      "outputs": [
        {
          "components": [
            {
              "internalType": "address",
              "name": "recipientAddress",
              "type": "address"
            },
            {
              "internalType": "string",
              "name": "image",
              "type": "string"
            },
            {
              "internalType": "string",
              "name": "text",
              "type": "string"
            },
            {
              "internalType": "uint256",
              "name": "timeStamp",
              "type": "uint256"
            },
            {
              "internalType": "string[]",
              "name": "tags",
              "type": "string[]"
            },
            {
              "internalType": "bool",
              "name": "isApproveNFT",
              "type": "bool"
            },
            {
              "internalType": "string",
              "name": "reason",
              "type": "string"
            },
            {
              "internalType": "uint256",
              "name": "previousTokenId",
              "type": "uint256"
            },
            {
              "internalType": "string",
              "name": "dataHashFromBackend",
              "type": "string"
            },
            {
              "internalType": "bytes32",
              "name": "dataHash",
              "type": "bytes32"
            }
          ],
          "internalType": "struct EmployeeNFT.EmployeeData",
          "name": "",
          "type": "tuple"
        }
      ],
      "stateMutability": "view",
      "type": "function"
    },
    {
      "inputs": [
        {
          "internalType": "address",
          "name": "owner",
          "type": "address"
        },
        {
          "internalType": "address",
          "name": "operator",
          "type": "address"
        }
      ],
      "name": "isApprovedForAll",
      "outputs": [
        {
          "internalType": "bool",
          "name": "",
          "type": "bool"
        }
      ],
      "stateMutability": "view",
      "type": "function"
    },
    {
      "inputs": [
        {
          "internalType": "address",
          "name": "_recipientAddress",
          "type": "address"
        },
        {
          "internalType": "string",
          "name": "_image",
          "type": "string"
        },
        {
          "internalType": "string",
          "name": "_text",
          "type": "string"
        },
        {
          "internalType": "uint256",
          "name": "_timeStamp",
          "type": "uint256"
        },
        {
          "internalType": "string[]",
          "name": "_tags",
          "type": "string[]"
        },
        {
          "internalType": "bool",
          "name": "_isApproveNFT",
          "type": "bool"
        },
        {
          "internalType": "string",
          "name": "_reason",
          "type": "string"
        },
        {
          "internalType": "uint256",
          "name": "_previousTokenId",
          "type": "uint256"
        },
        {
          "internalType": "string",
          "name": "dataHashFromBackend",
          "type": "string"
        }
      ],
      "name": "mintEmployeeNFT",
      "outputs": [],
      "stateMutability": "nonpayable",
      "type": "function"
    },
    {
      "inputs": [],
      "name": "name",
      "outputs": [
        {
          "internalType": "string",
          "name": "",
          "type": "string"
        }
      ],
      "stateMutability": "view",
      "type": "function"
    },
    {
      "inputs": [],
      "name": "owner",
      "outputs": [
        {
          "internalType": "address",
          "name": "",
          "type": "address"
        }
      ],
      "stateMutability": "view",
      "type": "function"
    },
    {
      "inputs": [
        {
          "internalType": "uint256",
          "name": "tokenId",
          "type": "uint256"
        }
      ],
      "name": "ownerOf",
      "outputs": [
        {
          "internalType": "address",
          "name": "",
          "type": "address"
        }
      ],
      "stateMutability": "view",
      "type": "function"
    },
    {
      "inputs": [],
      "name": "renounceOwnership",
      "outputs": [],
      "stateMutability": "nonpayable",
      "type": "function"
    },
    {
      "inputs": [
        {
          "internalType": "address",
          "name": "from",
          "type": "address"
        },
        {
          "internalType": "address",
          "name": "to",
          "type": "address"
        },
        {
          "internalType": "uint256",
          "name": "tokenId",
          "type": "uint256"
        }
      ],
      "name": "safeTransferFrom",
      "outputs": [],
      "stateMutability": "nonpayable",
      "type": "function"
    },
    {
      "inputs": [
        {
          "internalType": "address",
          "name": "from",
          "type": "address"
        },
        {
          "internalType": "address",
          "name": "to",
          "type": "address"
        },
        {
          "internalType": "uint256",
          "name": "tokenId",
          "type": "uint256"
        },
        {
          "internalType": "bytes",
          "name": "data",
          "type": "bytes"
        }
      ],
      "name": "safeTransferFrom",
      "outputs": [],
      "stateMutability": "nonpayable",
      "type": "function"
    },
    {
      "inputs": [
        {
          "internalType": "address",
          "name": "operator",
          "type": "address"
        },
        {
          "internalType": "bool",
          "name": "approved",
          "type": "bool"
        }
      ],
      "name": "setApprovalForAll",
      "outputs": [],
      "stateMutability": "nonpayable",
      "type": "function"
    },
    {
      "inputs": [
        {
          "internalType": "bytes4",
          "name": "interfaceId",
          "type": "bytes4"
        }
      ],
      "name": "supportsInterface",
      "outputs": [
        {
          "internalType": "bool",
          "name": "",
          "type": "bool"
        }
      ],
      "stateMutability": "view",
      "type": "function"
    },
    {
      "inputs": [],
      "name": "symbol",
      "outputs": [
        {
          "internalType": "string",
          "name": "",
          "type": "string"
        }
      ],
      "stateMutability": "view",
      "type": "function"
    },
    {
      "inputs": [],
      "name": "tokenCounter",
      "outputs": [
        {
          "internalType": "uint256",
          "name": "",
          "type": "uint256"
        }
      ],
      "stateMutability": "view",
      "type": "function"
    },
    {
      "inputs": [
        {
          "internalType": "uint256",
          "name": "tokenId",
          "type": "uint256"
        }
      ],
      "name": "tokenURI",
      "outputs": [
        {
          "internalType": "string",
          "name": "",
          "type": "string"
        }
      ],
      "stateMutability": "view",
      "type": "function"
    },
    {
      "inputs": [
        {
          "internalType": "address",
          "name": "from",
          "type": "address"
        },
        {
          "internalType": "address",
          "name": "to",
          "type": "address"
        },
        {
          "internalType": "uint256",
          "name": "tokenId",
          "type": "uint256"
        }
      ],
      "name": "transferFrom",
      "outputs": [],
      "stateMutability": "nonpayable",
      "type": "function"
    },
    {
      "inputs": [
        {
          "internalType": "address",
          "name": "newOwner",
          "type": "address"
        }
      ],
      "name": "transferOwnership",
      "outputs": [],
      "stateMutability": "nonpayable",
      "type": "function"
    }
  ],
  "bytecode": "0x608060405234801561001057600080fd5b506040518060400160405280600b81526020017f456d706c6f7965654e46540000000000000000000000000000000000000000008152506040518060400160405280600481526020017f454e465400000000000000000000000000000000000000000000000000000000815250816000908161008c91906103e6565b50806001908161009c91906103e6565b5050506100bb6100b06100c860201b60201c565b6100d060201b60201c565b60006008819055506104b8565b600033905090565b6000600660009054906101000a900473ffffffffffffffffffffffffffffffffffffffff16905081600660006101000a81548173ffffffffffffffffffffffffffffffffffffffff021916908373ffffffffffffffffffffffffffffffffffffffff1602179055508173ffffffffffffffffffffffffffffffffffffffff168173ffffffffffffffffffffffffffffffffffffffff167f8be0079c531659141344cd1fd0a4f28419497f9722a3daafe3b4186f6b6457e060405160405180910390a35050565b600081519050919050565b7f4e487b7100000000000000000000000000000000000000000000000000000000600052604160045260246000fd5b7f4e487b7100000000000000000000000000000000000000000000000000000000600052602260045260246000fd5b6000600282049050600182168061021757607f821691505b60208210810361022a576102296101d0565b5b50919050565b60008190508160005260206000209050919050565b60006020601f8301049050919050565b600082821b905092915050565b6000600883026102927fffffffffffffffffffffffffffffffffffffffffffffffffffffffffffffffff82610255565b61029c8683610255565b95508019841693508086168417925050509392505050565b6000819050919050565b6000819050919050565b60006102e36102de6102d9846102b4565b6102be565b6102b4565b9050919050565b6000819050919050565b6102fd836102c8565b610311610309826102ea565b848454610262565b825550505050565b600090565b610326610319565b6103318184846102f4565b505050565b5b818110156103555761034a60008261031e565b600181019050610337565b5050565b601f82111561039a5761036b81610230565b61037484610245565b81016020851015610383578190505b61039761038f85610245565b830182610336565b50505b505050565b600082821c905092915050565b60006103bd6000198460080261039f565b1980831691505092915050565b60006103d683836103ac565b9150826002028217905092915050565b6103ef82610196565b67ffffffffffffffff811115610408576104076101a1565b5b61041282546101ff565b61041d828285610359565b600060209050601f831160018114610450576000841561043e578287015190505b61044885826103ca565b8655506104b0565b601f19841661045e86610230565b60005b8281101561048657848901518255600182019150602085019450602081019050610461565b868310156104a3578489015161049f601f8916826103ac565b8355505b6001600288020188555050505b505050505050565b613747806104c76000396000f3fe608060405234801561001057600080fd5b506004361061012c5760003560e01c8063715018a6116100ad578063b88d4fde11610071578063b88d4fde14610341578063c87b56dd1461035d578063d082e3811461038d578063e985e9c5146103ab578063f2fde38b146103db5761012c565b8063715018a6146102c3578063853ca3ae146102cd5780638da5cb5b146102e957806395d89b4114610307578063a22cb465146103255761012c565b806342842e0e116100f457806342842e0e146101e75780636352211e146102035780637023ee141461023357806370a082311461026357806370c48824146102935761012c565b806301ffc9a71461013157806306fdde0314610161578063081812fc1461017f578063095ea7b3146101af57806323b872dd146101cb575b600080fd5b61014b60048036038101906101469190611fcf565b6103f7565b6040516101589190612017565b60405180910390f35b6101696104d9565b60405161017691906120c2565b60405180910390f35b6101996004803603810190610194919061211a565b61056b565b6040516101a69190612188565b60405180910390f35b6101c960048036038101906101c491906121cf565b6105b1565b005b6101e560048036038101906101e0919061220f565b6106c8565b005b61020160048036038101906101fc919061220f565b610728565b005b61021d6004803603810190610218919061211a565b610748565b60405161022a9190612188565b60405180910390f35b61024d600480360381019061024891906124a9565b6107ce565b60405161025a9190612618565b60405180910390f35b61027d60048036038101906102789190612633565b610816565b60405161028a919061266f565b60405180910390f35b6102ad60048036038101906102a8919061211a565b6108cd565b6040516102ba91906128c8565b60405180910390f35b6102cb610cf3565b005b6102e760048036038101906102e291906124a9565b610d07565b005b6102f1610f0e565b6040516102fe9190612188565b60405180910390f35b61030f610f38565b60405161031c91906120c2565b60405180910390f35b61033f600480360381019061033a91906128ea565b610fca565b005b61035b600480360381019061035691906129cb565b610fe0565b005b6103776004803603810190610372919061211a565b611042565b60405161038491906120c2565b60405180910390f35b6103956110aa565b6040516103a2919061266f565b60405180910390f35b6103c560048036038101906103c09190612a4e565b6110b0565b6040516103d29190612017565b60405180910390f35b6103f560048036038101906103f09190612633565b611144565b005b60007f80ac58cd000000000000000000000000000000000000000000000000000000007bffffffffffffffffffffffffffffffffffffffffffffffffffffffff1916827bffffffffffffffffffffffffffffffffffffffffffffffffffffffff191614806104c257507f5b5e139f000000000000000000000000000000000000000000000000000000007bffffffffffffffffffffffffffffffffffffffffffffffffffffffff1916827bffffffffffffffffffffffffffffffffffffffffffffffffffffffff1916145b806104d257506104d1826111c7565b5b9050919050565b6060600080546104e890612abd565b80601f016020809104026020016040519081016040528092919081815260200182805461051490612abd565b80156105615780601f1061053657610100808354040283529160200191610561565b820191906000526020600020905b81548152906001019060200180831161054457829003601f168201915b5050505050905090565b600061057682611231565b6004600083815260200190815260200160002060009054906101000a900473ffffffffffffffffffffffffffffffffffffffff169050919050565b60006105bc82610748565b90508073ffffffffffffffffffffffffffffffffffffffff168373ffffffffffffffffffffffffffffffffffffffff160361062c576040517f08c379a000000000000000000000000000000000000000000000000000000000815260040161062390612b60565b60405180910390fd5b8073ffffffffffffffffffffffffffffffffffffffff1661064b61127c565b73ffffffffffffffffffffffffffffffffffffffff16148061067a57506106798161067461127c565b6110b0565b5b6106b9576040517f08c379a00000000000000000000000000000000000000000000000000000000081526004016106b090612bf2565b60405180910390fd5b6106c38383611284565b505050565b6106d96106d361127c565b8261133d565b610718576040517f08c379a000000000000000000000000000000000000000000000000000000000815260040161070f90612c84565b60405180910390fd5b6107238383836113d2565b505050565b61074383838360405180602001604052806000815250610fe0565b505050565b6000806107548361140d565b9050600073ffffffffffffffffffffffffffffffffffffffff168173ffffffffffffffffffffffffffffffffffffffff16036107c5576040517f08c379a00000000000000000000000000000000000000000000000000000000081526004016107bc90612cf0565b60405180910390fd5b80915050919050565b60008989898989898989896040516020016107f199989796959493929190612d96565b6040516020818303038152906040528051906020012090509998505050505050505050565b60008073ffffffffffffffffffffffffffffffffffffffff168273ffffffffffffffffffffffffffffffffffffffff1603610886576040517f08c379a000000000000000000000000000000000000000000000000000000000815260040161087d90612eb8565b60405180910390fd5b600360008373ffffffffffffffffffffffffffffffffffffffff1673ffffffffffffffffffffffffffffffffffffffff168152602001908152602001600020549050919050565b6108d5611e1b565b6108de8261144a565b61091d576040517f08c379a000000000000000000000000000000000000000000000000000000000815260040161091490612f24565b60405180910390fd5b60076000838152602001908152602001600020604051806101400160405290816000820160009054906101000a900473ffffffffffffffffffffffffffffffffffffffff1673ffffffffffffffffffffffffffffffffffffffff1673ffffffffffffffffffffffffffffffffffffffff1681526020016001820180546109a290612abd565b80601f01602080910402602001604051908101604052809291908181526020018280546109ce90612abd565b8015610a1b5780601f106109f057610100808354040283529160200191610a1b565b820191906000526020600020905b8154815290600101906020018083116109fe57829003601f168201915b50505050508152602001600282018054610a3490612abd565b80601f0160208091040260200160405190810160405280929190818152602001828054610a6090612abd565b8015610aad5780601f10610a8257610100808354040283529160200191610aad565b820191906000526020600020905b815481529060010190602001808311610a9057829003601f168201915b505050505081526020016003820154815260200160048201805480602002602001604051908101604052809291908181526020016000905b82821015610b91578382906000526020600020018054610b0490612abd565b80601f0160208091040260200160405190810160405280929190818152602001828054610b3090612abd565b8015610b7d5780601f10610b5257610100808354040283529160200191610b7d565b820191906000526020600020905b815481529060010190602001808311610b6057829003601f168201915b505050505081526020019060010190610ae5565b5050505081526020016005820160009054906101000a900460ff16151515158152602001600682018054610bc490612abd565b80601f0160208091040260200160405190810160405280929190818152602001828054610bf090612abd565b8015610c3d5780601f10610c1257610100808354040283529160200191610c3d565b820191906000526020600020905b815481529060010190602001808311610c2057829003601f168201915b5050505050815260200160078201548152602001600882018054610c6090612abd565b80601f0160208091040260200160405190810160405280929190818152602001828054610c8c90612abd565b8015610cd95780601f10610cae57610100808354040283529160200191610cd9565b820191906000526020600020905b815481529060010190602001808311610cbc57829003601f168201915b505050505081526020016009820154815250509050919050565b610cfb61148b565b610d056000611509565b565b610d0f61148b565b6000610d228a8a8a8a8a8a8a8a8a6107ce565b9050600060085490506040518061014001604052808c73ffffffffffffffffffffffffffffffffffffffff1681526020018b81526020018a81526020018981526020018881526020018715158152602001868152602001858152602001848152602001838152506007600083815260200190815260200160002060008201518160000160006101000a81548173ffffffffffffffffffffffffffffffffffffffff021916908373ffffffffffffffffffffffffffffffffffffffff1602179055506020820151816001019081610df891906130f0565b506040820151816002019081610e0e91906130f0565b50606082015181600301556080820151816004019080519060200190610e35929190611e89565b5060a08201518160050160006101000a81548160ff02191690831515021790555060c0820151816006019081610e6b91906130f0565b5060e08201518160070155610100820151816008019081610e8c91906130f0565b506101208201518160090155905050610ea58b826115cf565b8a73ffffffffffffffffffffffffffffffffffffffff16817f65da82dde544239f93b7c29a07d1885069d4e9aa7d0b3999f4d8b66750122a4560405160405180910390a360086000815480929190610efc906131f1565b91905055505050505050505050505050565b6000600660009054906101000a900473ffffffffffffffffffffffffffffffffffffffff16905090565b606060018054610f4790612abd565b80601f0160208091040260200160405190810160405280929190818152602001828054610f7390612abd565b8015610fc05780601f10610f9557610100808354040283529160200191610fc0565b820191906000526020600020905b815481529060010190602001808311610fa357829003601f168201915b5050505050905090565b610fdc610fd561127c565b83836115ed565b5050565b610ff1610feb61127c565b8361133d565b611030576040517f08c379a000000000000000000000000000000000000000000000000000000000815260040161102790612c84565b60405180910390fd5b61103c84848484611759565b50505050565b606061104d82611231565b60006110576117b5565b9050600081511161107757604051806020016040528060008152506110a2565b80611081846117cc565b604051602001611092929190613275565b6040516020818303038152906040525b915050919050565b60085481565b6000600560008473ffffffffffffffffffffffffffffffffffffffff1673ffffffffffffffffffffffffffffffffffffffff16815260200190815260200160002060008373ffffffffffffffffffffffffffffffffffffffff1673ffffffffffffffffffffffffffffffffffffffff16815260200190815260200160002060009054906101000a900460ff16905092915050565b61114c61148b565b600073ffffffffffffffffffffffffffffffffffffffff168173ffffffffffffffffffffffffffffffffffffffff16036111bb576040517f08c379a00000000000000000000000000000000000000000000000000000000081526004016111b29061330b565b60405180910390fd5b6111c481611509565b50565b60007f01ffc9a7000000000000000000000000000000000000000000000000000000007bffffffffffffffffffffffffffffffffffffffffffffffffffffffff1916827bffffffffffffffffffffffffffffffffffffffffffffffffffffffff1916149050919050565b61123a8161144a565b611279576040517f08c379a000000000000000000000000000000000000000000000000000000000815260040161127090612cf0565b60405180910390fd5b50565b600033905090565b816004600083815260200190815260200160002060006101000a81548173ffffffffffffffffffffffffffffffffffffffff021916908373ffffffffffffffffffffffffffffffffffffffff160217905550808273ffffffffffffffffffffffffffffffffffffffff166112f783610748565b73ffffffffffffffffffffffffffffffffffffffff167f8c5be1e5ebec7d5bd14f71427d1e84f3dd0314c0f7b2291e5b200ac8c7c3b92560405160405180910390a45050565b60008061134983610748565b90508073ffffffffffffffffffffffffffffffffffffffff168473ffffffffffffffffffffffffffffffffffffffff16148061138b575061138a81856110b0565b5b806113c957508373ffffffffffffffffffffffffffffffffffffffff166113b18461056b565b73ffffffffffffffffffffffffffffffffffffffff16145b91505092915050565b6040517f08c379a00000000000000000000000000000000000000000000000000000000081526004016114049061339d565b60405180910390fd5b60006002600083815260200190815260200160002060009054906101000a900473ffffffffffffffffffffffffffffffffffffffff169050919050565b60008073ffffffffffffffffffffffffffffffffffffffff1661146c8361140d565b73ffffffffffffffffffffffffffffffffffffffff1614159050919050565b61149361127c565b73ffffffffffffffffffffffffffffffffffffffff166114b1610f0e565b73ffffffffffffffffffffffffffffffffffffffff1614611507576040517f08c379a00000000000000000000000000000000000000000000000000000000081526004016114fe90613409565b60405180910390fd5b565b6000600660009054906101000a900473ffffffffffffffffffffffffffffffffffffffff16905081600660006101000a81548173ffffffffffffffffffffffffffffffffffffffff021916908373ffffffffffffffffffffffffffffffffffffffff1602179055508173ffffffffffffffffffffffffffffffffffffffff168173ffffffffffffffffffffffffffffffffffffffff167f8be0079c531659141344cd1fd0a4f28419497f9722a3daafe3b4186f6b6457e060405160405180910390a35050565b6115e982826040518060200160405280600081525061189a565b5050565b8173ffffffffffffffffffffffffffffffffffffffff168373ffffffffffffffffffffffffffffffffffffffff160361165b576040517f08c379a000000000000000000000000000000000000000000000000000000000815260040161165290613475565b60405180910390fd5b80600560008573ffffffffffffffffffffffffffffffffffffffff1673ffffffffffffffffffffffffffffffffffffffff16815260200190815260200160002060008473ffffffffffffffffffffffffffffffffffffffff1673ffffffffffffffffffffffffffffffffffffffff16815260200190815260200160002060006101000a81548160ff0219169083151502179055508173ffffffffffffffffffffffffffffffffffffffff168373ffffffffffffffffffffffffffffffffffffffff167f17307eab39ab6107e8899845ad3d59bd9653f200f220920489ca2b5937696c318360405161174c9190612017565b60405180910390a3505050565b6117648484846113d2565b611770848484846118f5565b6117af576040517f08c379a00000000000000000000000000000000000000000000000000000000081526004016117a690613507565b60405180910390fd5b50505050565b606060405180602001604052806000815250905090565b6060600060016117db84611a7c565b01905060008167ffffffffffffffff8111156117fa576117f961226c565b5b6040519080825280601f01601f19166020018201604052801561182c5781602001600182028036833780820191505090505b509050600082602001820190505b60011561188f578080600190039150507f3031323334353637383961626364656600000000000000000000000000000000600a86061a8153600a858161188357611882613527565b5b0494506000850361183a575b819350505050919050565b6118a48383611bcf565b6118b160008484846118f5565b6118f0576040517f08c379a00000000000000000000000000000000000000000000000000000000081526004016118e790613507565b60405180910390fd5b505050565b60006119168473ffffffffffffffffffffffffffffffffffffffff16611dec565b15611a6f578373ffffffffffffffffffffffffffffffffffffffff1663150b7a0261193f61127c565b8786866040518563ffffffff1660e01b815260040161196194939291906135ab565b6020604051808303816000875af192505050801561199d57506040513d601f19601f8201168201806040525081019061199a919061360c565b60015b611a1f573d80600081146119cd576040519150601f19603f3d011682016040523d82523d6000602084013e6119d2565b606091505b506000815103611a17576040517f08c379a0000000000000000000000000000000000000000000000000000000008152600401611a0e90613507565b60405180910390fd5b805181602001fd5b63150b7a0260e01b7bffffffffffffffffffffffffffffffffffffffffffffffffffffffff1916817bffffffffffffffffffffffffffffffffffffffffffffffffffffffff191614915050611a74565b600190505b949350505050565b600080600090507a184f03e93ff9f4daa797ed6e38ed64bf6a1f0100000000000000008310611ada577a184f03e93ff9f4daa797ed6e38ed64bf6a1f0100000000000000008381611ad057611acf613527565b5b0492506040810190505b6d04ee2d6d415b85acef81000000008310611b17576d04ee2d6d415b85acef81000000008381611b0d57611b0c613527565b5b0492506020810190505b662386f26fc100008310611b4657662386f26fc100008381611b3c57611b3b613527565b5b0492506010810190505b6305f5e1008310611b6f576305f5e1008381611b6557611b64613527565b5b0492506008810190505b6127108310611b94576127108381611b8a57611b89613527565b5b0492506004810190505b60648310611bb75760648381611bad57611bac613527565b5b0492506002810190505b600a8310611bc6576001810190505b80915050919050565b600073ffffffffffffffffffffffffffffffffffffffff168273ffffffffffffffffffffffffffffffffffffffff1603611c3e576040517f08c379a0000000000000000000000000000000000000000000000000000000008152600401611c3590613685565b60405180910390fd5b611c478161144a565b15611c87576040517f08c379a0000000000000000000000000000000000000000000000000000000008152600401611c7e906136f1565b60405180910390fd5b611c95600083836001611e0f565b611c9e8161144a565b15611cde576040517f08c379a0000000000000000000000000000000000000000000000000000000008152600401611cd5906136f1565b60405180910390fd5b6001600360008473ffffffffffffffffffffffffffffffffffffffff1673ffffffffffffffffffffffffffffffffffffffff16815260200190815260200160002060008282540192505081905550816002600083815260200190815260200160002060006101000a81548173ffffffffffffffffffffffffffffffffffffffff021916908373ffffffffffffffffffffffffffffffffffffffff160217905550808273ffffffffffffffffffffffffffffffffffffffff16600073ffffffffffffffffffffffffffffffffffffffff167fddf252ad1be2c89b69c2b068fc378daa952ba7f163c4a11628f55a4df523b3ef60405160405180910390a4611de8600083836001611e15565b5050565b6000808273ffffffffffffffffffffffffffffffffffffffff163b119050919050565b50505050565b50505050565b604051806101400160405280600073ffffffffffffffffffffffffffffffffffffffff16815260200160608152602001606081526020016000815260200160608152602001600015158152602001606081526020016000815260200160608152602001600080191681525090565b828054828255906000526020600020908101928215611ed1579160200282015b82811115611ed0578251829081611ec091906130f0565b5091602001919060010190611ea9565b5b509050611ede9190611ee2565b5090565b5b80821115611f025760008181611ef99190611f06565b50600101611ee3565b5090565b508054611f1290612abd565b6000825580601f10611f245750611f43565b601f016020900490600052602060002090810190611f429190611f46565b5b50565b5b80821115611f5f576000816000905550600101611f47565b5090565b6000604051905090565b600080fd5b600080fd5b60007fffffffff0000000000000000000000000000000000000000000000000000000082169050919050565b611fac81611f77565b8114611fb757600080fd5b50565b600081359050611fc981611fa3565b92915050565b600060208284031215611fe557611fe4611f6d565b5b6000611ff384828501611fba565b91505092915050565b60008115159050919050565b61201181611ffc565b82525050565b600060208201905061202c6000830184612008565b92915050565b600081519050919050565b600082825260208201905092915050565b60005b8381101561206c578082015181840152602081019050612051565b60008484015250505050565b6000601f19601f8301169050919050565b600061209482612032565b61209e818561203d565b93506120ae81856020860161204e565b6120b781612078565b840191505092915050565b600060208201905081810360008301526120dc8184612089565b905092915050565b6000819050919050565b6120f7816120e4565b811461210257600080fd5b50565b600081359050612114816120ee565b92915050565b6000602082840312156121305761212f611f6d565b5b600061213e84828501612105565b91505092915050565b600073ffffffffffffffffffffffffffffffffffffffff82169050919050565b600061217282612147565b9050919050565b61218281612167565b82525050565b600060208201905061219d6000830184612179565b92915050565b6121ac81612167565b81146121b757600080fd5b50565b6000813590506121c9816121a3565b92915050565b600080604083850312156121e6576121e5611f6d565b5b60006121f4858286016121ba565b925050602061220585828601612105565b9150509250929050565b60008060006060848603121561222857612227611f6d565b5b6000612236868287016121ba565b9350506020612247868287016121ba565b925050604061225886828701612105565b9150509250925092565b600080fd5b600080fd5b7f4e487b7100000000000000000000000000000000000000000000000000000000600052604160045260246000fd5b6122a482612078565b810181811067ffffffffffffffff821117156122c3576122c261226c565b5b80604052505050565b60006122d6611f63565b90506122e2828261229b565b919050565b600067ffffffffffffffff8211156123025761230161226c565b5b61230b82612078565b9050602081019050919050565b82818337600083830152505050565b600061233a612335846122e7565b6122cc565b90508281526020810184848401111561235657612355612267565b5b612361848285612318565b509392505050565b600082601f83011261237e5761237d612262565b5b813561238e848260208601612327565b91505092915050565b600067ffffffffffffffff8211156123b2576123b161226c565b5b602082029050602081019050919050565b600080fd5b60006123db6123d684612397565b6122cc565b905080838252602082019050602084028301858111156123fe576123fd6123c3565b5b835b8181101561244557803567ffffffffffffffff81111561242357612422612262565b5b8086016124308982612369565b85526020850194505050602081019050612400565b5050509392505050565b600082601f83011261246457612463612262565b5b81356124748482602086016123c8565b91505092915050565b61248681611ffc565b811461249157600080fd5b50565b6000813590506124a38161247d565b92915050565b60008060008060008060008060006101208a8c0312156124cc576124cb611f6d565b5b60006124da8c828d016121ba565b99505060208a013567ffffffffffffffff8111156124fb576124fa611f72565b5b6125078c828d01612369565b98505060408a013567ffffffffffffffff81111561252857612527611f72565b5b6125348c828d01612369565b97505060606125458c828d01612105565b96505060808a013567ffffffffffffffff81111561256657612565611f72565b5b6125728c828d0161244f565b95505060a06125838c828d01612494565b94505060c08a013567ffffffffffffffff8111156125a4576125a3611f72565b5b6125b08c828d01612369565b93505060e06125c18c828d01612105565b9250506101008a013567ffffffffffffffff8111156125e3576125e2611f72565b5b6125ef8c828d01612369565b9150509295985092959850929598565b6000819050919050565b612612816125ff565b82525050565b600060208201905061262d6000830184612609565b92915050565b60006020828403121561264957612648611f6d565b5b6000612657848285016121ba565b91505092915050565b612669816120e4565b82525050565b60006020820190506126846000830184612660565b92915050565b61269381612167565b82525050565b600082825260208201905092915050565b60006126b582612032565b6126bf8185612699565b93506126cf81856020860161204e565b6126d881612078565b840191505092915050565b6126ec816120e4565b82525050565b600081519050919050565b600082825260208201905092915050565b6000819050602082019050919050565b600061272a83836126aa565b905092915050565b6000602082019050919050565b600061274a826126f2565b61275481856126fd565b9350836020820285016127668561270e565b8060005b858110156127a25784840389528151612783858261271e565b945061278e83612732565b925060208a0199505060018101905061276a565b50829750879550505050505092915050565b6127bd81611ffc565b82525050565b6127cc816125ff565b82525050565b6000610140830160008301516127eb600086018261268a565b506020830151848203602086015261280382826126aa565b9150506040830151848203604086015261281d82826126aa565b915050606083015161283260608601826126e3565b506080830151848203608086015261284a828261273f565b91505060a083015161285f60a08601826127b4565b5060c083015184820360c086015261287782826126aa565b91505060e083015161288c60e08601826126e3565b506101008301518482036101008601526128a682826126aa565b9150506101208301516128bd6101208601826127c3565b508091505092915050565b600060208201905081810360008301526128e281846127d2565b905092915050565b6000806040838503121561290157612900611f6d565b5b600061290f858286016121ba565b925050602061292085828601612494565b9150509250929050565b600067ffffffffffffffff8211156129455761294461226c565b5b61294e82612078565b9050602081019050919050565b600061296e6129698461292a565b6122cc565b90508281526020810184848401111561298a57612989612267565b5b612995848285612318565b509392505050565b600082601f8301126129b2576129b1612262565b5b81356129c284826020860161295b565b91505092915050565b600080600080608085870312156129e5576129e4611f6d565b5b60006129f3878288016121ba565b9450506020612a04878288016121ba565b9350506040612a1587828801612105565b925050606085013567ffffffffffffffff811115612a3657612a35611f72565b5b612a428782880161299d565b91505092959194509250565b60008060408385031215612a6557612a64611f6d565b5b6000612a73858286016121ba565b9250506020612a84858286016121ba565b9150509250929050565b7f4e487b7100000000000000000000000000000000000000000000000000000000600052602260045260246000fd5b60006002820490506001821680612ad557607f821691505b602082108103612ae857612ae7612a8e565b5b50919050565b7f4552433732313a20617070726f76616c20746f2063757272656e74206f776e6560008201527f7200000000000000000000000000000000000000000000000000000000000000602082015250565b6000612b4a60218361203d565b9150612b5582612aee565b604082019050919050565b60006020820190508181036000830152612b7981612b3d565b9050919050565b7f4552433732313a20617070726f76652063616c6c6572206973206e6f7420746f60008201527f6b656e206f776e6572206f7220617070726f76656420666f7220616c6c000000602082015250565b6000612bdc603d8361203d565b9150612be782612b80565b604082019050919050565b60006020820190508181036000830152612c0b81612bcf565b9050919050565b7f4552433732313a2063616c6c6572206973206e6f7420746f6b656e206f776e6560008201527f72206f7220617070726f76656400000000000000000000000000000000000000602082015250565b6000612c6e602d8361203d565b9150612c7982612c12565b604082019050919050565b60006020820190508181036000830152612c9d81612c61565b9050919050565b7f4552433732313a20696e76616c696420746f6b656e2049440000000000000000600082015250565b6000612cda60188361203d565b9150612ce582612ca4565b602082019050919050565b60006020820190508181036000830152612d0981612ccd565b9050919050565b600082825260208201905092915050565b6000612d2c826126f2565b612d368185612d10565b935083602082028501612d488561270e565b8060005b85811015612d845784840389528151612d65858261271e565b9450612d7083612732565b925060208a01995050600181019050612d4c565b50829750879550505050505092915050565b600061012082019050612dac600083018c612179565b8181036020830152612dbe818b612089565b90508181036040830152612dd2818a612089565b9050612de16060830189612660565b8181036080830152612df38188612d21565b9050612e0260a0830187612008565b81810360c0830152612e148186612089565b9050612e2360e0830185612660565b818103610100830152612e368184612089565b90509a9950505050505050505050565b7f4552433732313a2061646472657373207a65726f206973206e6f74206120766160008201527f6c6964206f776e65720000000000000000000000000000000000000000000000602082015250565b6000612ea260298361203d565b9150612ead82612e46565b604082019050919050565b60006020820190508181036000830152612ed181612e95565b9050919050565b7f546f6b656e20494420646f6573206e6f74206578697374000000000000000000600082015250565b6000612f0e60178361203d565b9150612f1982612ed8565b602082019050919050565b60006020820190508181036000830152612f3d81612f01565b9050919050565b60008190508160005260206000209050919050565b60006020601f8301049050919050565b600082821b905092915050565b600060088302612fa67fffffffffffffffffffffffffffffffffffffffffffffffffffffffffffffffff82612f69565b612fb08683612f69565b95508019841693508086168417925050509392505050565b6000819050919050565b6000612fed612fe8612fe3846120e4565b612fc8565b6120e4565b9050919050565b6000819050919050565b61300783612fd2565b61301b61301382612ff4565b848454612f76565b825550505050565b600090565b613030613023565b61303b818484612ffe565b505050565b5b8181101561305f57613054600082613028565b600181019050613041565b5050565b601f8211156130a45761307581612f44565b61307e84612f59565b8101602085101561308d578190505b6130a161309985612f59565b830182613040565b50505b505050565b600082821c905092915050565b60006130c7600019846008026130a9565b1980831691505092915050565b60006130e083836130b6565b9150826002028217905092915050565b6130f982612032565b67ffffffffffffffff8111156131125761311161226c565b5b61311c8254612abd565b613127828285613063565b600060209050601f83116001811461315a5760008415613148578287015190505b61315285826130d4565b8655506131ba565b601f19841661316886612f44565b60005b828110156131905784890151825560018201915060208501945060208101905061316b565b868310156131ad57848901516131a9601f8916826130b6565b8355505b6001600288020188555050505b505050505050565b7f4e487b7100000000000000000000000000000000000000000000000000000000600052601160045260246000fd5b60006131fc826120e4565b91507fffffffffffffffffffffffffffffffffffffffffffffffffffffffffffffffff820361322e5761322d6131c2565b5b600182019050919050565b600081905092915050565b600061324f82612032565b6132598185613239565b935061326981856020860161204e565b80840191505092915050565b60006132818285613244565b915061328d8284613244565b91508190509392505050565b7f4f776e61626c653a206e6577206f776e657220697320746865207a65726f206160008201527f6464726573730000000000000000000000000000000000000000000000000000602082015250565b60006132f560268361203d565b915061330082613299565b604082019050919050565b60006020820190508181036000830152613324816132e8565b9050919050565b7f536f756c626f756e64204e4654732063616e6e6f74206265207472616e73666560008201527f7272656400000000000000000000000000000000000000000000000000000000602082015250565b600061338760248361203d565b91506133928261332b565b604082019050919050565b600060208201905081810360008301526133b68161337a565b9050919050565b7f4f776e61626c653a2063616c6c6572206973206e6f7420746865206f776e6572600082015250565b60006133f360208361203d565b91506133fe826133bd565b602082019050919050565b60006020820190508181036000830152613422816133e6565b9050919050565b7f4552433732313a20617070726f766520746f2063616c6c657200000000000000600082015250565b600061345f60198361203d565b915061346a82613429565b602082019050919050565b6000602082019050818103600083015261348e81613452565b9050919050565b7f4552433732313a207472616e7366657220746f206e6f6e20455243373231526560008201527f63656976657220696d706c656d656e7465720000000000000000000000000000602082015250565b60006134f160328361203d565b91506134fc82613495565b604082019050919050565b60006020820190508181036000830152613520816134e4565b9050919050565b7f4e487b7100000000000000000000000000000000000000000000000000000000600052601260045260246000fd5b600081519050919050565b600082825260208201905092915050565b600061357d82613556565b6135878185613561565b935061359781856020860161204e565b6135a081612078565b840191505092915050565b60006080820190506135c06000830187612179565b6135cd6020830186612179565b6135da6040830185612660565b81810360608301526135ec8184613572565b905095945050505050565b60008151905061360681611fa3565b92915050565b60006020828403121561362257613621611f6d565b5b6000613630848285016135f7565b91505092915050565b7f4552433732313a206d696e7420746f20746865207a65726f2061646472657373600082015250565b600061366f60208361203d565b915061367a82613639565b602082019050919050565b6000602082019050818103600083015261369e81613662565b9050919050565b7f4552433732313a20746f6b656e20616c7265616479206d696e74656400000000600082015250565b60006136db601c8361203d565b91506136e6826136a5565b602082019050919050565b6000602082019050818103600083015261370a816136ce565b905091905056fea2646970667358221220e6460adef3595ede7d1a018d5bef6e262c4680102a6df795285aa872b62cee4d64736f6c634300081b0033",
  "linkReferences": {},
  "deployedLinkReferences": {}
}